{
  "_format": "hh-sol-artifact-1",
  "contractName": "Huntress",
  "sourceName": "contracts/MyContract.sol",
  "abi": [
    {
      "inputs": [],
      "stateMutability": "nonpayable",
      "type": "constructor"
    },
    {
      "anonymous": false,
      "inputs": [
        {
          "indexed": true,
          "internalType": "address",
          "name": "owner",
          "type": "address"
        },
        {
          "indexed": true,
          "internalType": "address",
          "name": "approved",
          "type": "address"
        },
        {
          "indexed": true,
          "internalType": "uint256",
          "name": "tokenId",
          "type": "uint256"
        }
      ],
      "name": "Approval",
      "type": "event"
    },
    {
      "anonymous": false,
      "inputs": [
        {
          "indexed": true,
          "internalType": "address",
          "name": "owner",
          "type": "address"
        },
        {
          "indexed": true,
          "internalType": "address",
          "name": "operator",
          "type": "address"
        },
        {
          "indexed": false,
          "internalType": "bool",
          "name": "approved",
          "type": "bool"
        }
      ],
      "name": "ApprovalForAll",
      "type": "event"
    },
    {
      "anonymous": false,
      "inputs": [
        {
          "indexed": true,
          "internalType": "address",
          "name": "previousOwner",
          "type": "address"
        },
        {
          "indexed": true,
          "internalType": "address",
          "name": "newOwner",
          "type": "address"
        }
      ],
      "name": "OwnershipTransferred",
      "type": "event"
    },
    {
      "anonymous": false,
      "inputs": [
        {
          "indexed": true,
          "internalType": "address",
          "name": "from",
          "type": "address"
        },
        {
          "indexed": true,
          "internalType": "address",
          "name": "to",
          "type": "address"
        },
        {
          "indexed": true,
          "internalType": "uint256",
          "name": "tokenId",
          "type": "uint256"
        }
      ],
      "name": "Transfer",
      "type": "event"
    },
    {
      "inputs": [
        {
          "internalType": "address",
          "name": "to",
          "type": "address"
        },
        {
          "internalType": "uint256",
          "name": "tokenId",
          "type": "uint256"
        }
      ],
      "name": "approve",
      "outputs": [],
      "stateMutability": "nonpayable",
      "type": "function"
    },
    {
      "inputs": [
        {
          "internalType": "address",
          "name": "owner",
          "type": "address"
        }
      ],
      "name": "balanceOf",
      "outputs": [
        {
          "internalType": "uint256",
          "name": "",
          "type": "uint256"
        }
      ],
      "stateMutability": "view",
      "type": "function"
    },
    {
      "inputs": [],
      "name": "baseURI",
      "outputs": [
        {
          "internalType": "string",
          "name": "",
          "type": "string"
        }
      ],
      "stateMutability": "view",
      "type": "function"
    },
    {
      "inputs": [
        {
          "internalType": "uint256",
          "name": "tokenId",
          "type": "uint256"
        }
      ],
      "name": "getApproved",
      "outputs": [
        {
          "internalType": "address",
          "name": "",
          "type": "address"
        }
      ],
      "stateMutability": "view",
      "type": "function"
    },
    {
      "inputs": [
        {
          "internalType": "address",
          "name": "owner",
          "type": "address"
        },
        {
          "internalType": "address",
          "name": "operator",
          "type": "address"
        }
      ],
      "name": "isApprovedForAll",
      "outputs": [
        {
          "internalType": "bool",
          "name": "",
          "type": "bool"
        }
      ],
      "stateMutability": "view",
      "type": "function"
    },
    {
      "inputs": [],
      "name": "mint",
      "outputs": [],
      "stateMutability": "payable",
      "type": "function"
    },
    {
      "inputs": [],
      "name": "mintLimit",
      "outputs": [
        {
          "internalType": "uint256",
          "name": "",
          "type": "uint256"
        }
      ],
      "stateMutability": "view",
      "type": "function"
    },
    {
      "inputs": [],
      "name": "mintPrice",
      "outputs": [
        {
          "internalType": "uint256",
          "name": "",
          "type": "uint256"
        }
      ],
      "stateMutability": "view",
      "type": "function"
    },
    {
      "inputs": [],
      "name": "name",
      "outputs": [
        {
          "internalType": "string",
          "name": "",
          "type": "string"
        }
      ],
      "stateMutability": "view",
      "type": "function"
    },
    {
      "inputs": [],
      "name": "owner",
      "outputs": [
        {
          "internalType": "address",
          "name": "",
          "type": "address"
        }
      ],
      "stateMutability": "view",
      "type": "function"
    },
    {
      "inputs": [
        {
          "internalType": "uint256",
          "name": "tokenId",
          "type": "uint256"
        }
      ],
      "name": "ownerOf",
      "outputs": [
        {
          "internalType": "address",
          "name": "",
          "type": "address"
        }
      ],
      "stateMutability": "view",
      "type": "function"
    },
    {
      "inputs": [],
      "name": "renounceOwnership",
      "outputs": [],
      "stateMutability": "nonpayable",
      "type": "function"
    },
    {
      "inputs": [
        {
          "internalType": "address",
          "name": "from",
          "type": "address"
        },
        {
          "internalType": "address",
          "name": "to",
          "type": "address"
        },
        {
          "internalType": "uint256",
          "name": "tokenId",
          "type": "uint256"
        }
      ],
      "name": "safeTransferFrom",
      "outputs": [],
      "stateMutability": "nonpayable",
      "type": "function"
    },
    {
      "inputs": [
        {
          "internalType": "address",
          "name": "from",
          "type": "address"
        },
        {
          "internalType": "address",
          "name": "to",
          "type": "address"
        },
        {
          "internalType": "uint256",
          "name": "tokenId",
          "type": "uint256"
        },
        {
          "internalType": "bytes",
          "name": "_data",
          "type": "bytes"
        }
      ],
      "name": "safeTransferFrom",
      "outputs": [],
      "stateMutability": "nonpayable",
      "type": "function"
    },
    {
      "inputs": [
        {
          "internalType": "address",
          "name": "operator",
          "type": "address"
        },
        {
          "internalType": "bool",
          "name": "approved",
          "type": "bool"
        }
      ],
      "name": "setApprovalForAll",
      "outputs": [],
      "stateMutability": "nonpayable",
      "type": "function"
    },
    {
      "inputs": [
        {
          "internalType": "string",
          "name": "_uri",
          "type": "string"
        }
      ],
      "name": "setBaseURI",
      "outputs": [],
      "stateMutability": "nonpayable",
      "type": "function"
    },
    {
      "inputs": [
        {
          "internalType": "uint256",
          "name": "_mintPrice",
          "type": "uint256"
        }
      ],
      "name": "setMintPrice",
      "outputs": [],
      "stateMutability": "nonpayable",
      "type": "function"
    },
    {
      "inputs": [
        {
          "internalType": "bytes4",
          "name": "interfaceId",
          "type": "bytes4"
        }
      ],
      "name": "supportsInterface",
      "outputs": [
        {
          "internalType": "bool",
          "name": "",
          "type": "bool"
        }
      ],
      "stateMutability": "view",
      "type": "function"
    },
    {
      "inputs": [],
      "name": "symbol",
      "outputs": [
        {
          "internalType": "string",
          "name": "",
          "type": "string"
        }
      ],
      "stateMutability": "view",
      "type": "function"
    },
    {
      "inputs": [
        {
          "internalType": "uint256",
          "name": "tokenId",
          "type": "uint256"
        }
      ],
      "name": "tokenURI",
      "outputs": [
        {
          "internalType": "string",
          "name": "",
          "type": "string"
        }
      ],
      "stateMutability": "view",
      "type": "function"
    },
    {
      "inputs": [
        {
          "internalType": "address",
          "name": "from",
          "type": "address"
        },
        {
          "internalType": "address",
          "name": "to",
          "type": "address"
        },
        {
          "internalType": "uint256",
          "name": "tokenId",
          "type": "uint256"
        }
      ],
      "name": "transferFrom",
      "outputs": [],
      "stateMutability": "nonpayable",
      "type": "function"
    },
    {
      "inputs": [
        {
          "internalType": "address",
          "name": "newOwner",
          "type": "address"
        }
      ],
      "name": "transferOwnership",
      "outputs": [],
      "stateMutability": "nonpayable",
      "type": "function"
    },
    {
      "inputs": [],
      "name": "withdraw",
      "outputs": [],
      "stateMutability": "nonpayable",
      "type": "function"
    }
  ],
  "bytecode": "0x6080604052681b1ae4d6e2ef500000600a556005600b553480156200002357600080fd5b506040518060400160405280601481526020017f43796265722048756e74726573736573204e46540000000000000000000000008152506040518060400160405280600381526020017f43484e00000000000000000000000000000000000000000000000000000000008152508160009080519060200190620000a8929190620001c0565b508060019080519060200190620000c1929190620001c0565b505050620000e4620000d8620000f260201b60201c565b620000fa60201b60201c565b6001600781905550620002d5565b600033905090565b6000600660009054906101000a900473ffffffffffffffffffffffffffffffffffffffff16905081600660006101000a81548173ffffffffffffffffffffffffffffffffffffffff021916908373ffffffffffffffffffffffffffffffffffffffff1602179055508173ffffffffffffffffffffffffffffffffffffffff168173ffffffffffffffffffffffffffffffffffffffff167f8be0079c531659141344cd1fd0a4f28419497f9722a3daafe3b4186f6b6457e060405160405180910390a35050565b828054620001ce9062000270565b90600052602060002090601f016020900481019282620001f257600085556200023e565b82601f106200020d57805160ff19168380011785556200023e565b828001600101855582156200023e579182015b828111156200023d57825182559160200191906001019062000220565b5b5090506200024d919062000251565b5090565b5b808211156200026c57600081600090555060010162000252565b5090565b600060028204905060018216806200028957607f821691505b60208210811415620002a0576200029f620002a6565b5b50919050565b7f4e487b7100000000000000000000000000000000000000000000000000000000600052602260045260246000fd5b6134e480620002e56000396000f3fe6080604052600436106101405760003560e01c80636c0360eb116100b6578063a22cb4651161006f578063a22cb46514610417578063b88d4fde14610440578063c87b56dd14610469578063e985e9c5146104a6578063f2fde38b146104e3578063f4a0a5281461050c57610140565b80636c0360eb1461031757806370a0823114610342578063715018a61461037f5780638da5cb5b1461039657806395d89b41146103c1578063996517cf146103ec57610140565b806323b872dd1161010857806323b872dd1461021d5780633ccfd60b1461024657806342842e0e1461025d57806355f804b3146102865780636352211e146102af5780636817c76c146102ec57610140565b806301ffc9a71461014557806306fdde0314610182578063081812fc146101ad578063095ea7b3146101ea5780631249c58b14610213575b600080fd5b34801561015157600080fd5b5061016c6004803603810190610167919061234f565b610535565b6040516101799190612888565b60405180910390f35b34801561018e57600080fd5b50610197610617565b6040516101a491906128a3565b60405180910390f35b3480156101b957600080fd5b506101d460048036038101906101cf91906123e2565b6106a9565b6040516101e19190612821565b60405180910390f35b3480156101f657600080fd5b50610211600480360381019061020c9190612313565b61072e565b005b61021b610846565b005b34801561022957600080fd5b50610244600480360381019061023f919061220d565b610952565b005b34801561025257600080fd5b5061025b6109b2565b005b34801561026957600080fd5b50610284600480360381019061027f919061220d565b610add565b005b34801561029257600080fd5b506102ad60048036038101906102a891906123a1565b610afd565b005b3480156102bb57600080fd5b506102d660048036038101906102d191906123e2565b610b93565b6040516102e39190612821565b60405180910390f35b3480156102f857600080fd5b50610301610c45565b60405161030e9190612b45565b60405180910390f35b34801561032357600080fd5b5061032c610c4b565b60405161033991906128a3565b60405180910390f35b34801561034e57600080fd5b50610369600480360381019061036491906121a8565b610cd9565b6040516103769190612b45565b60405180910390f35b34801561038b57600080fd5b50610394610d91565b005b3480156103a257600080fd5b506103ab610e19565b6040516103b89190612821565b60405180910390f35b3480156103cd57600080fd5b506103d6610e43565b6040516103e391906128a3565b60405180910390f35b3480156103f857600080fd5b50610401610ed5565b60405161040e9190612b45565b60405180910390f35b34801561042357600080fd5b5061043e600480360381019061043991906122d7565b610edb565b005b34801561044c57600080fd5b506104676004803603810190610462919061225c565b610ef1565b005b34801561047557600080fd5b50610490600480360381019061048b91906123e2565b610f53565b60405161049d91906128a3565b60405180910390f35b3480156104b257600080fd5b506104cd60048036038101906104c891906121d1565b610fd5565b6040516104da9190612888565b60405180910390f35b3480156104ef57600080fd5b5061050a600480360381019061050591906121a8565b611069565b005b34801561051857600080fd5b50610533600480360381019061052e91906123e2565b611161565b005b60007f80ac58cd000000000000000000000000000000000000000000000000000000007bffffffffffffffffffffffffffffffffffffffffffffffffffffffff1916827bffffffffffffffffffffffffffffffffffffffffffffffffffffffff1916148061060057507f5b5e139f000000000000000000000000000000000000000000000000000000007bffffffffffffffffffffffffffffffffffffffffffffffffffffffff1916827bffffffffffffffffffffffffffffffffffffffffffffffffffffffff1916145b80610610575061060f826111e7565b5b9050919050565b60606000805461062690612da6565b80601f016020809104026020016040519081016040528092919081815260200182805461065290612da6565b801561069f5780601f106106745761010080835404028352916020019161069f565b820191906000526020600020905b81548152906001019060200180831161068257829003601f168201915b5050505050905090565b60006106b482611251565b6106f3576040517f08c379a00000000000000000000000000000000000000000000000000000000081526004016106ea90612a85565b60405180910390fd5b6004600083815260200190815260200160002060009054906101000a900473ffffffffffffffffffffffffffffffffffffffff169050919050565b600061073982610b93565b90508073ffffffffffffffffffffffffffffffffffffffff168373ffffffffffffffffffffffffffffffffffffffff1614156107aa576040517f08c379a00000000000000000000000000000000000000000000000000000000081526004016107a190612ac5565b60405180910390fd5b8073ffffffffffffffffffffffffffffffffffffffff166107c96112bd565b73ffffffffffffffffffffffffffffffffffffffff1614806107f857506107f7816107f26112bd565b610fd5565b5b610837576040517f08c379a000000000000000000000000000000000000000000000000000000000815260040161082e90612a05565b60405180910390fd5b61084183836112c5565b505050565b6002600754141561088c576040517f08c379a000000000000000000000000000000000000000000000000000000000815260040161088390612b25565b60405180910390fd5b6002600781905550600a543410156108d9576040517f08c379a00000000000000000000000000000000000000000000000000000000081526004016108d0906128c5565b60405180910390fd5b600b546108e533610cd9565b10610925576040517f08c379a000000000000000000000000000000000000000000000000000000000815260040161091c906129a5565b60405180910390fd5b6000610931600861137e565b905061093d338261138c565b61094760086113aa565b506001600781905550565b61096361095d6112bd565b826113c0565b6109a2576040517f08c379a000000000000000000000000000000000000000000000000000000000815260040161099990612b05565b60405180910390fd5b6109ad83838361149e565b505050565b6109ba6112bd565b73ffffffffffffffffffffffffffffffffffffffff166109d8610e19565b73ffffffffffffffffffffffffffffffffffffffff1614610a2e576040517f08c379a0000000000000000000000000000000000000000000000000000000008152600401610a2590612aa5565b60405180910390fd5b60003373ffffffffffffffffffffffffffffffffffffffff1647604051610a549061280c565b60006040518083038185875af1925050503d8060008114610a91576040519150601f19603f3d011682016040523d82523d6000602084013e610a96565b606091505b5050905080610ada576040517f08c379a0000000000000000000000000000000000000000000000000000000008152600401610ad190612ae5565b60405180910390fd5b50565b610af883838360405180602001604052806000815250610ef1565b505050565b610b056112bd565b73ffffffffffffffffffffffffffffffffffffffff16610b23610e19565b73ffffffffffffffffffffffffffffffffffffffff1614610b79576040517f08c379a0000000000000000000000000000000000000000000000000000000008152600401610b7090612aa5565b60405180910390fd5b8060099080519060200190610b8f929190611fcc565b5050565b6000806002600084815260200190815260200160002060009054906101000a900473ffffffffffffffffffffffffffffffffffffffff169050600073ffffffffffffffffffffffffffffffffffffffff168173ffffffffffffffffffffffffffffffffffffffff161415610c3c576040517f08c379a0000000000000000000000000000000000000000000000000000000008152600401610c3390612a45565b60405180910390fd5b80915050919050565b600a5481565b60098054610c5890612da6565b80601f0160208091040260200160405190810160405280929190818152602001828054610c8490612da6565b8015610cd15780601f10610ca657610100808354040283529160200191610cd1565b820191906000526020600020905b815481529060010190602001808311610cb457829003601f168201915b505050505081565b60008073ffffffffffffffffffffffffffffffffffffffff168273ffffffffffffffffffffffffffffffffffffffff161415610d4a576040517f08c379a0000000000000000000000000000000000000000000000000000000008152600401610d4190612a25565b60405180910390fd5b600360008373ffffffffffffffffffffffffffffffffffffffff1673ffffffffffffffffffffffffffffffffffffffff168152602001908152602001600020549050919050565b610d996112bd565b73ffffffffffffffffffffffffffffffffffffffff16610db7610e19565b73ffffffffffffffffffffffffffffffffffffffff1614610e0d576040517f08c379a0000000000000000000000000000000000000000000000000000000008152600401610e0490612aa5565b60405180910390fd5b610e176000611705565b565b6000600660009054906101000a900473ffffffffffffffffffffffffffffffffffffffff16905090565b606060018054610e5290612da6565b80601f0160208091040260200160405190810160405280929190818152602001828054610e7e90612da6565b8015610ecb5780601f10610ea057610100808354040283529160200191610ecb565b820191906000526020600020905b815481529060010190602001808311610eae57829003601f168201915b5050505050905090565b600b5481565b610eed610ee66112bd565b83836117cb565b5050565b610f02610efc6112bd565b836113c0565b610f41576040517f08c379a0000000000000000000000000000000000000000000000000000000008152600401610f3890612b05565b60405180910390fd5b610f4d84848484611938565b50505050565b6060610f5e82611251565b610f9d576040517f08c379a0000000000000000000000000000000000000000000000000000000008152600401610f94906129c5565b60405180910390fd5b610fa5611994565b610fae83611a26565b604051602001610fbf9291906127dd565b6040516020818303038152906040529050919050565b6000600560008473ffffffffffffffffffffffffffffffffffffffff1673ffffffffffffffffffffffffffffffffffffffff16815260200190815260200160002060008373ffffffffffffffffffffffffffffffffffffffff1673ffffffffffffffffffffffffffffffffffffffff16815260200190815260200160002060009054906101000a900460ff16905092915050565b6110716112bd565b73ffffffffffffffffffffffffffffffffffffffff1661108f610e19565b73ffffffffffffffffffffffffffffffffffffffff16146110e5576040517f08c379a00000000000000000000000000000000000000000000000000000000081526004016110dc90612aa5565b60405180910390fd5b600073ffffffffffffffffffffffffffffffffffffffff168173ffffffffffffffffffffffffffffffffffffffff161415611155576040517f08c379a000000000000000000000000000000000000000000000000000000000815260040161114c90612905565b60405180910390fd5b61115e81611705565b50565b6111696112bd565b73ffffffffffffffffffffffffffffffffffffffff16611187610e19565b73ffffffffffffffffffffffffffffffffffffffff16146111dd576040517f08c379a00000000000000000000000000000000000000000000000000000000081526004016111d490612aa5565b60405180910390fd5b80600a8190555050565b60007f01ffc9a7000000000000000000000000000000000000000000000000000000007bffffffffffffffffffffffffffffffffffffffffffffffffffffffff1916827bffffffffffffffffffffffffffffffffffffffffffffffffffffffff1916149050919050565b60008073ffffffffffffffffffffffffffffffffffffffff166002600084815260200190815260200160002060009054906101000a900473ffffffffffffffffffffffffffffffffffffffff1673ffffffffffffffffffffffffffffffffffffffff1614159050919050565b600033905090565b816004600083815260200190815260200160002060006101000a81548173ffffffffffffffffffffffffffffffffffffffff021916908373ffffffffffffffffffffffffffffffffffffffff160217905550808273ffffffffffffffffffffffffffffffffffffffff1661133883610b93565b73ffffffffffffffffffffffffffffffffffffffff167f8c5be1e5ebec7d5bd14f71427d1e84f3dd0314c0f7b2291e5b200ac8c7c3b92560405160405180910390a45050565b600081600001549050919050565b6113a6828260405180602001604052806000815250611bd3565b5050565b6001816000016000828254019250508190555050565b60006113cb82611251565b61140a576040517f08c379a0000000000000000000000000000000000000000000000000000000008152600401611401906129e5565b60405180910390fd5b600061141583610b93565b90508073ffffffffffffffffffffffffffffffffffffffff168473ffffffffffffffffffffffffffffffffffffffff16148061145757506114568185610fd5565b5b8061149557508373ffffffffffffffffffffffffffffffffffffffff1661147d846106a9565b73ffffffffffffffffffffffffffffffffffffffff16145b91505092915050565b8273ffffffffffffffffffffffffffffffffffffffff166114be82610b93565b73ffffffffffffffffffffffffffffffffffffffff1614611514576040517f08c379a000000000000000000000000000000000000000000000000000000000815260040161150b90612925565b60405180910390fd5b600073ffffffffffffffffffffffffffffffffffffffff168273ffffffffffffffffffffffffffffffffffffffff161415611584576040517f08c379a000000000000000000000000000000000000000000000000000000000815260040161157b90612965565b60405180910390fd5b61158f838383611c2e565b61159a6000826112c5565b6001600360008573ffffffffffffffffffffffffffffffffffffffff1673ffffffffffffffffffffffffffffffffffffffff16815260200190815260200160002060008282546115ea9190612cbc565b925050819055506001600360008473ffffffffffffffffffffffffffffffffffffffff1673ffffffffffffffffffffffffffffffffffffffff16815260200190815260200160002060008282546116419190612c35565b92505081905550816002600083815260200190815260200160002060006101000a81548173ffffffffffffffffffffffffffffffffffffffff021916908373ffffffffffffffffffffffffffffffffffffffff160217905550808273ffffffffffffffffffffffffffffffffffffffff168473ffffffffffffffffffffffffffffffffffffffff167fddf252ad1be2c89b69c2b068fc378daa952ba7f163c4a11628f55a4df523b3ef60405160405180910390a4611700838383611c33565b505050565b6000600660009054906101000a900473ffffffffffffffffffffffffffffffffffffffff16905081600660006101000a81548173ffffffffffffffffffffffffffffffffffffffff021916908373ffffffffffffffffffffffffffffffffffffffff1602179055508173ffffffffffffffffffffffffffffffffffffffff168173ffffffffffffffffffffffffffffffffffffffff167f8be0079c531659141344cd1fd0a4f28419497f9722a3daafe3b4186f6b6457e060405160405180910390a35050565b8173ffffffffffffffffffffffffffffffffffffffff168373ffffffffffffffffffffffffffffffffffffffff16141561183a576040517f08c379a000000000000000000000000000000000000000000000000000000000815260040161183190612985565b60405180910390fd5b80600560008573ffffffffffffffffffffffffffffffffffffffff1673ffffffffffffffffffffffffffffffffffffffff16815260200190815260200160002060008473ffffffffffffffffffffffffffffffffffffffff1673ffffffffffffffffffffffffffffffffffffffff16815260200190815260200160002060006101000a81548160ff0219169083151502179055508173ffffffffffffffffffffffffffffffffffffffff168373ffffffffffffffffffffffffffffffffffffffff167f17307eab39ab6107e8899845ad3d59bd9653f200f220920489ca2b5937696c318360405161192b9190612888565b60405180910390a3505050565b61194384848461149e565b61194f84848484611c38565b61198e576040517f08c379a0000000000000000000000000000000000000000000000000000000008152600401611985906128e5565b60405180910390fd5b50505050565b6060600980546119a390612da6565b80601f01602080910402602001604051908101604052809291908181526020018280546119cf90612da6565b8015611a1c5780601f106119f157610100808354040283529160200191611a1c565b820191906000526020600020905b8154815290600101906020018083116119ff57829003601f168201915b5050505050905090565b60606000821415611a6e576040518060400160405280600181526020017f30000000000000000000000000000000000000000000000000000000000000008152509050611bce565b600082905060005b60008214611aa0578080611a8990612e09565b915050600a82611a999190612c8b565b9150611a76565b60008167ffffffffffffffff811115611ae2577f4e487b7100000000000000000000000000000000000000000000000000000000600052604160045260246000fd5b6040519080825280601f01601f191660200182016040528015611b145781602001600182028036833780820191505090505b5090505b60008514611bc757600182611b2d9190612cbc565b9150600a85611b3c9190612e52565b6030611b489190612c35565b60f81b818381518110611b84577f4e487b7100000000000000000000000000000000000000000000000000000000600052603260045260246000fd5b60200101907effffffffffffffffffffffffffffffffffffffffffffffffffffffffffffff1916908160001a905350600a85611bc09190612c8b565b9450611b18565b8093505050505b919050565b611bdd8383611dcf565b611bea6000848484611c38565b611c29576040517f08c379a0000000000000000000000000000000000000000000000000000000008152600401611c20906128e5565b60405180910390fd5b505050565b505050565b505050565b6000611c598473ffffffffffffffffffffffffffffffffffffffff16611fa9565b15611dc2578373ffffffffffffffffffffffffffffffffffffffff1663150b7a02611c826112bd565b8786866040518563ffffffff1660e01b8152600401611ca4949392919061283c565b602060405180830381600087803b158015611cbe57600080fd5b505af1925050508015611cef57506040513d601f19601f82011682018060405250810190611cec9190612378565b60015b611d72573d8060008114611d1f576040519150601f19603f3d011682016040523d82523d6000602084013e611d24565b606091505b50600081511415611d6a576040517f08c379a0000000000000000000000000000000000000000000000000000000008152600401611d61906128e5565b60405180910390fd5b805181602001fd5b63150b7a0260e01b7bffffffffffffffffffffffffffffffffffffffffffffffffffffffff1916817bffffffffffffffffffffffffffffffffffffffffffffffffffffffff191614915050611dc7565b600190505b949350505050565b600073ffffffffffffffffffffffffffffffffffffffff168273ffffffffffffffffffffffffffffffffffffffff161415611e3f576040517f08c379a0000000000000000000000000000000000000000000000000000000008152600401611e3690612a65565b60405180910390fd5b611e4881611251565b15611e88576040517f08c379a0000000000000000000000000000000000000000000000000000000008152600401611e7f90612945565b60405180910390fd5b611e9460008383611c2e565b6001600360008473ffffffffffffffffffffffffffffffffffffffff1673ffffffffffffffffffffffffffffffffffffffff1681526020019081526020016000206000828254611ee49190612c35565b92505081905550816002600083815260200190815260200160002060006101000a81548173ffffffffffffffffffffffffffffffffffffffff021916908373ffffffffffffffffffffffffffffffffffffffff160217905550808273ffffffffffffffffffffffffffffffffffffffff16600073ffffffffffffffffffffffffffffffffffffffff167fddf252ad1be2c89b69c2b068fc378daa952ba7f163c4a11628f55a4df523b3ef60405160405180910390a4611fa560008383611c33565b5050565b6000808273ffffffffffffffffffffffffffffffffffffffff163b119050919050565b828054611fd890612da6565b90600052602060002090601f016020900481019282611ffa5760008555612041565b82601f1061201357805160ff1916838001178555612041565b82800160010185558215612041579182015b82811115612040578251825591602001919060010190612025565b5b50905061204e9190612052565b5090565b5b8082111561206b576000816000905550600101612053565b5090565b600061208261207d84612b85565b612b60565b90508281526020810184848401111561209a57600080fd5b6120a5848285612d64565b509392505050565b60006120c06120bb84612bb6565b612b60565b9050828152602081018484840111156120d857600080fd5b6120e3848285612d64565b509392505050565b6000813590506120fa81613452565b92915050565b60008135905061210f81613469565b92915050565b60008135905061212481613480565b92915050565b60008151905061213981613480565b92915050565b600082601f83011261215057600080fd5b813561216084826020860161206f565b91505092915050565b600082601f83011261217a57600080fd5b813561218a8482602086016120ad565b91505092915050565b6000813590506121a281613497565b92915050565b6000602082840312156121ba57600080fd5b60006121c8848285016120eb565b91505092915050565b600080604083850312156121e457600080fd5b60006121f2858286016120eb565b9250506020612203858286016120eb565b9150509250929050565b60008060006060848603121561222257600080fd5b6000612230868287016120eb565b9350506020612241868287016120eb565b925050604061225286828701612193565b9150509250925092565b6000806000806080858703121561227257600080fd5b6000612280878288016120eb565b9450506020612291878288016120eb565b93505060406122a287828801612193565b925050606085013567ffffffffffffffff8111156122bf57600080fd5b6122cb8782880161213f565b91505092959194509250565b600080604083850312156122ea57600080fd5b60006122f8858286016120eb565b925050602061230985828601612100565b9150509250929050565b6000806040838503121561232657600080fd5b6000612334858286016120eb565b925050602061234585828601612193565b9150509250929050565b60006020828403121561236157600080fd5b600061236f84828501612115565b91505092915050565b60006020828403121561238a57600080fd5b60006123988482850161212a565b91505092915050565b6000602082840312156123b357600080fd5b600082013567ffffffffffffffff8111156123cd57600080fd5b6123d984828501612169565b91505092915050565b6000602082840312156123f457600080fd5b600061240284828501612193565b91505092915050565b61241481612cf0565b82525050565b61242381612d02565b82525050565b600061243482612be7565b61243e8185612bfd565b935061244e818560208601612d73565b61245781612f3f565b840191505092915050565b600061246d82612bf2565b6124778185612c19565b9350612487818560208601612d73565b61249081612f3f565b840191505092915050565b60006124a682612bf2565b6124b08185612c2a565b93506124c0818560208601612d73565b80840191505092915050565b60006124d9601983612c19565b91506124e482612f50565b602082019050919050565b60006124fc603283612c19565b915061250782612f79565b604082019050919050565b600061251f602683612c19565b915061252a82612fc8565b604082019050919050565b6000612542602583612c19565b915061254d82613017565b604082019050919050565b6000612565601c83612c19565b915061257082613066565b602082019050919050565b6000612588602483612c19565b91506125938261308f565b604082019050919050565b60006125ab601983612c19565b91506125b6826130de565b602082019050919050565b60006125ce601783612c19565b91506125d982613107565b602082019050919050565b60006125f1601483612c19565b91506125fc82613130565b602082019050919050565b6000612614602c83612c19565b915061261f82613159565b604082019050919050565b6000612637603883612c19565b9150612642826131a8565b604082019050919050565b600061265a602a83612c19565b9150612665826131f7565b604082019050919050565b600061267d602983612c19565b915061268882613246565b604082019050919050565b60006126a0602083612c19565b91506126ab82613295565b602082019050919050565b60006126c3602c83612c19565b91506126ce826132be565b604082019050919050565b60006126e6600583612c2a565b91506126f18261330d565b600582019050919050565b6000612709602083612c19565b915061271482613336565b602082019050919050565b600061272c602183612c19565b91506127378261335f565b604082019050919050565b600061274f600083612c0e565b915061275a826133ae565b600082019050919050565b6000612772601083612c19565b915061277d826133b1565b602082019050919050565b6000612795603183612c19565b91506127a0826133da565b604082019050919050565b60006127b8601f83612c19565b91506127c382613429565b602082019050919050565b6127d781612d5a565b82525050565b60006127e9828561249b565b91506127f5828461249b565b9150612800826126d9565b91508190509392505050565b600061281782612742565b9150819050919050565b6000602082019050612836600083018461240b565b92915050565b6000608082019050612851600083018761240b565b61285e602083018661240b565b61286b60408301856127ce565b818103606083015261287d8184612429565b905095945050505050565b600060208201905061289d600083018461241a565b92915050565b600060208201905081810360008301526128bd8184612462565b905092915050565b600060208201905081810360008301526128de816124cc565b9050919050565b600060208201905081810360008301526128fe816124ef565b9050919050565b6000602082019050818103600083015261291e81612512565b9050919050565b6000602082019050818103600083015261293e81612535565b9050919050565b6000602082019050818103600083015261295e81612558565b9050919050565b6000602082019050818103600083015261297e8161257b565b9050919050565b6000602082019050818103600083015261299e8161259e565b9050919050565b600060208201905081810360008301526129be816125c1565b9050919050565b600060208201905081810360008301526129de816125e4565b9050919050565b600060208201905081810360008301526129fe81612607565b9050919050565b60006020820190508181036000830152612a1e8161262a565b9050919050565b60006020820190508181036000830152612a3e8161264d565b9050919050565b60006020820190508181036000830152612a5e81612670565b9050919050565b60006020820190508181036000830152612a7e81612693565b9050919050565b60006020820190508181036000830152612a9e816126b6565b9050919050565b60006020820190508181036000830152612abe816126fc565b9050919050565b60006020820190508181036000830152612ade8161271f565b9050919050565b60006020820190508181036000830152612afe81612765565b9050919050565b60006020820190508181036000830152612b1e81612788565b9050919050565b60006020820190508181036000830152612b3e816127ab565b9050919050565b6000602082019050612b5a60008301846127ce565b92915050565b6000612b6a612b7b565b9050612b768282612dd8565b919050565b6000604051905090565b600067ffffffffffffffff821115612ba057612b9f612f10565b5b612ba982612f3f565b9050602081019050919050565b600067ffffffffffffffff821115612bd157612bd0612f10565b5b612bda82612f3f565b9050602081019050919050565b600081519050919050565b600081519050919050565b600082825260208201905092915050565b600081905092915050565b600082825260208201905092915050565b600081905092915050565b6000612c4082612d5a565b9150612c4b83612d5a565b9250827fffffffffffffffffffffffffffffffffffffffffffffffffffffffffffffffff03821115612c8057612c7f612e83565b5b828201905092915050565b6000612c9682612d5a565b9150612ca183612d5a565b925082612cb157612cb0612eb2565b5b828204905092915050565b6000612cc782612d5a565b9150612cd283612d5a565b925082821015612ce557612ce4612e83565b5b828203905092915050565b6000612cfb82612d3a565b9050919050565b60008115159050919050565b60007fffffffff0000000000000000000000000000000000000000000000000000000082169050919050565b600073ffffffffffffffffffffffffffffffffffffffff82169050919050565b6000819050919050565b82818337600083830152505050565b60005b83811015612d91578082015181840152602081019050612d76565b83811115612da0576000848401525b50505050565b60006002820490506001821680612dbe57607f821691505b60208210811415612dd257612dd1612ee1565b5b50919050565b612de182612f3f565b810181811067ffffffffffffffff82111715612e0057612dff612f10565b5b80604052505050565b6000612e1482612d5a565b91507fffffffffffffffffffffffffffffffffffffffffffffffffffffffffffffffff821415612e4757612e46612e83565b5b600182019050919050565b6000612e5d82612d5a565b9150612e6883612d5a565b925082612e7857612e77612eb2565b5b828206905092915050565b7f4e487b7100000000000000000000000000000000000000000000000000000000600052601160045260246000fd5b7f4e487b7100000000000000000000000000000000000000000000000000000000600052601260045260246000fd5b7f4e487b7100000000000000000000000000000000000000000000000000000000600052602260045260246000fd5b7f4e487b7100000000000000000000000000000000000000000000000000000000600052604160045260246000fd5b6000601f19601f8301169050919050565b7f4e6f7420656e6f75676820657468657220746f206d696e742e00000000000000600082015250565b7f4552433732313a207472616e7366657220746f206e6f6e20455243373231526560008201527f63656976657220696d706c656d656e7465720000000000000000000000000000602082015250565b7f4f776e61626c653a206e6577206f776e657220697320746865207a65726f206160008201527f6464726573730000000000000000000000000000000000000000000000000000602082015250565b7f4552433732313a207472616e736665722066726f6d20696e636f72726563742060008201527f6f776e6572000000000000000000000000000000000000000000000000000000602082015250565b7f4552433732313a20746f6b656e20616c7265616479206d696e74656400000000600082015250565b7f4552433732313a207472616e7366657220746f20746865207a65726f2061646460008201527f7265737300000000000000000000000000000000000000000000000000000000602082015250565b7f4552433732313a20617070726f766520746f2063616c6c657200000000000000600082015250565b7f43616e6e6f74206d696e74206d6f7265207468616e2035000000000000000000600082015250565b7f546f6b656e20646f6573206e6f74206578697374000000000000000000000000600082015250565b7f4552433732313a206f70657261746f7220717565727920666f72206e6f6e657860008201527f697374656e7420746f6b656e0000000000000000000000000000000000000000602082015250565b7f4552433732313a20617070726f76652063616c6c6572206973206e6f74206f7760008201527f6e6572206e6f7220617070726f76656420666f7220616c6c0000000000000000602082015250565b7f4552433732313a2062616c616e636520717565727920666f7220746865207a6560008201527f726f206164647265737300000000000000000000000000000000000000000000602082015250565b7f4552433732313a206f776e657220717565727920666f72206e6f6e657869737460008201527f656e7420746f6b656e0000000000000000000000000000000000000000000000602082015250565b7f4552433732313a206d696e7420746f20746865207a65726f2061646472657373600082015250565b7f4552433732313a20617070726f76656420717565727920666f72206e6f6e657860008201527f697374656e7420746f6b656e0000000000000000000000000000000000000000602082015250565b7f2e6a736f6e000000000000000000000000000000000000000000000000000000600082015250565b7f4f776e61626c653a2063616c6c6572206973206e6f7420746865206f776e6572600082015250565b7f4552433732313a20617070726f76616c20746f2063757272656e74206f776e6560008201527f7200000000000000000000000000000000000000000000000000000000000000602082015250565b50565b7f5472616e73666572206661696c65642e00000000000000000000000000000000600082015250565b7f4552433732313a207472616e736665722063616c6c6572206973206e6f74206f60008201527f776e6572206e6f7220617070726f766564000000000000000000000000000000602082015250565b7f5265656e7472616e637947756172643a207265656e7472616e742063616c6c00600082015250565b61345b81612cf0565b811461346657600080fd5b50565b61347281612d02565b811461347d57600080fd5b50565b61348981612d0e565b811461349457600080fd5b50565b6134a081612d5a565b81146134ab57600080fd5b5056fea264697066735822122030cc90173c715486d9801660485cafcfe92bebd360e41717a57e715597f306bf64736f6c63430008010033",
  "linkReferences": {},
  "deployedLinkReferences": {}
}